{
  "contractName": "Casino",
  "abi": [
    {
      "constant": false,
      "inputs": [],
      "name": "generateNumberWinner",
      "outputs": [],
      "payable": false,
      "type": "function"
    },
    {
      "constant": true,
      "inputs": [],
      "name": "numberOfBets",
      "outputs": [
        {
          "name": "",
          "type": "uint256"
        }
      ],
      "payable": false,
      "type": "function"
    },
    {
      "constant": true,
      "inputs": [
        {
          "name": "player",
          "type": "address"
        }
      ],
      "name": "checkPlayerExists",
      "outputs": [
        {
          "name": "",
          "type": "bool"
        }
      ],
      "payable": false,
      "type": "function"
    },
    {
      "constant": false,
      "inputs": [],
      "name": "kill",
      "outputs": [],
      "payable": false,
      "type": "function"
    },
    {
      "constant": false,
      "inputs": [],
      "name": "resetData",
      "outputs": [],
      "payable": false,
      "type": "function"
    },
    {
      "constant": true,
      "inputs": [
        {
          "name": "",
          "type": "address"
        }
      ],
      "name": "playerInfo",
      "outputs": [
        {
          "name": "amountBet",
          "type": "uint256"
        },
        {
          "name": "numberSelected",
          "type": "uint256"
        }
      ],
      "payable": false,
      "type": "function"
    },
    {
      "constant": false,
      "inputs": [
        {
          "name": "numberWinner",
          "type": "uint256"
        }
      ],
      "name": "distributePrizes",
      "outputs": [],
      "payable": false,
      "type": "function"
    },
    {
      "constant": false,
      "inputs": [
        {
          "name": "numberSelected",
          "type": "uint256"
        }
      ],
      "name": "bet",
      "outputs": [],
      "payable": true,
      "type": "function"
    },
    {
      "constant": true,
      "inputs": [],
      "name": "owner",
      "outputs": [
        {
          "name": "",
          "type": "address"
        }
      ],
      "payable": false,
      "type": "function"
    },
    {
      "constant": true,
      "inputs": [],
      "name": "minimumBet",
      "outputs": [
        {
          "name": "",
          "type": "uint256"
        }
      ],
      "payable": false,
      "type": "function"
    },
    {
      "constant": true,
      "inputs": [],
      "name": "maxAmountOfBets",
      "outputs": [
        {
          "name": "",
          "type": "uint256"
        }
      ],
      "payable": false,
      "type": "function"
    },
    {
      "constant": true,
      "inputs": [
        {
          "name": "",
          "type": "uint256"
        }
      ],
      "name": "players",
      "outputs": [
        {
          "name": "",
          "type": "address"
        }
      ],
      "payable": false,
      "type": "function"
    },
    {
      "constant": true,
      "inputs": [],
      "name": "totalBet",
      "outputs": [
        {
          "name": "",
          "type": "uint256"
        }
      ],
      "payable": false,
      "type": "function"
    },
    {
      "inputs": [
        {
          "name": "_minimumBet",
          "type": "uint256"
        }
      ],
      "payable": false,
      "type": "constructor"
    },
    {
      "payable": true,
      "type": "fallback"
    }
  ],
  "bytecode": "0x60606040526064600455341561001157fe5b604051602080610a5e833981016040528080519060200190919050505b33600060006101000a81548173ffffffffffffffffffffffffffffffffffffffff021916908373ffffffffffffffffffffffffffffffffffffffff16021790555060008114151561008157806001819055505b5b505b6109cb806100936000396000f300606060405236156100c3576000357c0100000000000000000000000000000000000000000000000000000000900463ffffffff1680630a50e361146100cc5780632ca8c6d3146100de5780634081d9161461010457806341c0e1b514610152578063478c4e0e146101645780634b114691146101765780636ca3fc3b146101c75780637365870b146101e75780638da5cb5b146101ff578063c38a8afd14610251578063e08a96cd14610277578063f71d96cb1461029d578063fe5e1853146102fd575b6100ca5b5b565b005b34156100d457fe5b6100dc610323565b005b34156100e657fe5b6100ee610344565b6040518082815260200191505060405180910390f35b341561010c57fe5b610138600480803573ffffffffffffffffffffffffffffffffffffffff1690602001909190505061034a565b604051808215151515815260200191505060405180910390f35b341561015a57fe5b6101626103f1565b005b341561016c57fe5b610174610485565b005b341561017e57fe5b6101aa600480803573ffffffffffffffffffffffffffffffffffffffff169060200190919050506104a8565b604051808381526020018281526020019250505060405180910390f35b34156101cf57fe5b6101e560048080359060200190919050506104cc565b005b6101fd600480803590602001909190505061070d565b005b341561020757fe5b61020f61086b565b604051808273ffffffffffffffffffffffffffffffffffffffff1673ffffffffffffffffffffffffffffffffffffffff16815260200191505060405180910390f35b341561025957fe5b610261610891565b6040518082815260200191505060405180910390f35b341561027f57fe5b610287610897565b6040518082815260200191505060405180910390f35b34156102a557fe5b6102bb600480803590602001909190505061089d565b604051808273ffffffffffffffffffffffffffffffffffffffff1673ffffffffffffffffffffffffffffffffffffffff16815260200191505060405180910390f35b341561030557fe5b61030d6108dd565b6040518082815260200191505060405180910390f35b60006001600a4381151561033357fe5b06019050610340816104cc565b5b50565b60035481565b60006000600090505b6005805490508110156103e6578273ffffffffffffffffffffffffffffffffffffffff1660058281548110151561038657fe5b906000526020600020900160005b9054906101000a900473ffffffffffffffffffffffffffffffffffffffff1673ffffffffffffffffffffffffffffffffffffffff1614156103d857600191506103eb565b5b8080600101915050610353565b600091505b50919050565b600060009054906101000a900473ffffffffffffffffffffffffffffffffffffffff1673ffffffffffffffffffffffffffffffffffffffff163373ffffffffffffffffffffffffffffffffffffffff16141561048257600060009054906101000a900473ffffffffffffffffffffffffffffffffffffffff1673ffffffffffffffffffffffffffffffffffffffff16ff5b5b565b600060058161049491906108e3565b50600060028190555060006003819055505b565b60066020528060005260406000206000915090508060000154908060010154905082565b6104d461090f565b6000600060006000600060009450600093505b60058054905084101561062c5760058481548110151561050357fe5b906000526020600020900160005b9054906101000a900473ffffffffffffffffffffffffffffffffffffffff16925086600660008573ffffffffffffffffffffffffffffffffffffffff1673ffffffffffffffffffffffffffffffffffffffff1681526020019081526020016000206001015414156105cb5782868660648110151561058b57fe5b602002019073ffffffffffffffffffffffffffffffffffffffff16908173ffffffffffffffffffffffffffffffffffffffff168152505084806001019550505b600660008473ffffffffffffffffffffffffffffffffffffffff1673ffffffffffffffffffffffffffffffffffffffff16815260200190815260200160002060006000820160009055600182016000905550505b83806001019450506104e7565b600060058161063b91906108e3565b50606460025481151561064a57fe5b049150600090505b8481101561070357600073ffffffffffffffffffffffffffffffffffffffff16868260648110151561068057fe5b602002015173ffffffffffffffffffffffffffffffffffffffff161415156106f55785816064811015156106b057fe5b602002015173ffffffffffffffffffffffffffffffffffffffff166108fc839081150290604051809050600060405180830381858888f1935050505015156106f457fe5b5b5b8080600101915050610652565b5b50505050505050565b6107163361034a565b1515156107235760006000fd5b600181101580156107355750600a8111155b15156107415760006000fd5b60015434101515156107535760006000fd5b34600660003373ffffffffffffffffffffffffffffffffffffffff1673ffffffffffffffffffffffffffffffffffffffff1681526020019081526020016000206000018190555080600660003373ffffffffffffffffffffffffffffffffffffffff1673ffffffffffffffffffffffffffffffffffffffff1681526020019081526020016000206001018190555060036000815480929190600101919050555060058054806001018281610807919061094e565b916000526020600020900160005b33909190916101000a81548173ffffffffffffffffffffffffffffffffffffffff021916908373ffffffffffffffffffffffffffffffffffffffff16021790555050346002600082825401925050819055505b50565b600060009054906101000a900473ffffffffffffffffffffffffffffffffffffffff1681565b60015481565b60045481565b6005818154811015156108ac57fe5b906000526020600020900160005b915054906101000a900473ffffffffffffffffffffffffffffffffffffffff1681565b60025481565b81548183558181151161090a57818360005260206000209182019101610909919061097a565b5b505050565b610c80604051908101604052806064905b600073ffffffffffffffffffffffffffffffffffffffff168152602001906001900390816109205790505090565b81548183558181151161097557818360005260206000209182019101610974919061097a565b5b505050565b61099c91905b80821115610998576000816000905550600101610980565b5090565b905600a165627a7a723058200679168b98529ab5887125ab6597c3ad02d1fdef57543ad5506202d88392b49d0029",
  "source": "pragma solidity 0.4.11;\r\ncontract Casino {\r\n   address public owner;\r\n   uint256 public minimumBet;\r\n   uint256 public totalBet;\r\n   uint256 public numberOfBets;\r\n   uint256 public maxAmountOfBets = 100;\r\n   address[] public players;\r\n   struct Player {\r\n      uint256 amountBet;\r\n      uint256 numberSelected;\r\n   }\r\n   // The address of the player and => the user info   \r\n   mapping(address => Player) public playerInfo;\r\n   function() public payable {}\r\n   function Casino(uint256 _minimumBet) public {\r\n      owner = msg.sender;\r\n      if(_minimumBet != 0 ) minimumBet = _minimumBet;\r\n   }\r\n   function kill() public {\r\n      if(msg.sender == owner) selfdestruct(owner);\r\n   }\r\n   function checkPlayerExists(address player) public constant returns(bool){\r\n      for(uint256 i = 0; i < players.length; i++){\r\n         if(players[i] == player) return true;\r\n      }\r\n      return false;\r\n   }\r\n   // To bet for a number between 1 and 10 both inclusive\r\n   function bet(uint256 numberSelected) public payable {\r\n      require(!checkPlayerExists(msg.sender));\r\n      require(numberSelected >= 1 && numberSelected <= 10);\r\n      require(msg.value >= minimumBet);\r\n      playerInfo[msg.sender].amountBet = msg.value;\r\n      playerInfo[msg.sender].numberSelected = numberSelected;\r\n      numberOfBets++;\r\n      players.push(msg.sender);\r\n      totalBet += msg.value;\r\n   }\r\n   // Generates a number between 1 and 10 that will be the winner\r\n   function generateNumberWinner() public {\r\n      uint256 numberGenerated = block.number % 10 + 1; // This isn't secure\r\n      distributePrizes(numberGenerated);\r\n   }\r\n   function resetData(){\r\n   players.length = 0; // Delete all the players array\r\n   totalBet = 0;\r\n   numberOfBets = 0;\r\n}\r\n   // Sends the corresponding ether to each winner depending on the total bets\r\n   function distributePrizes(uint256 numberWinner) public {\r\n      address[100] memory winners; // We have to create a temporary in memory array with fixed size\r\n      uint256 count = 0; // This is the count for the array of winners\r\n      for(uint256 i = 0; i < players.length; i++){\r\n         address playerAddress = players[i];\r\n         if(playerInfo[playerAddress].numberSelected == numberWinner){\r\n            winners[count] = playerAddress;\r\n            count++;\r\n         }\r\n         delete playerInfo[playerAddress]; // Delete all the players\r\n      }\r\n      players.length = 0; // Delete all the players array\r\n      uint256 winnerEtherAmount = totalBet / winners.length; // How much each winner gets\r\n      for(uint256 j = 0; j < count; j++){\r\n         if(winners[j] != address(0)) // Check that the address in this fixed array is not empty\r\n         winners[j].transfer(winnerEtherAmount);\r\n      }\r\n   }\r\n}",
  "sourcePath": "C:\\Users\\User\\Desktop\\Refund-by-Location-Smart-Contract\\contracts\\Casino.sol",
  "compiler": {
    "name": "solc",
    "version": "0.4.11+commit.68ef5810.Emscripten.clang"
  },
  "schemaVersion": "3.4.10",
  "updatedAt": "2022-10-27T21:11:35.090Z",
  "devdoc": {
    "methods": {}
  },
  "userdoc": {
    "methods": {}
  }
}