{
  "contractName": "paybylocation",
  "abi": [
    {
      "inputs": [
        {
          "internalType": "address",
          "name": "",
          "type": "address"
        }
      ],
      "name": "employee_store",
      "outputs": [
        {
          "internalType": "uint256",
          "name": "lat",
          "type": "uint256"
        },
        {
          "internalType": "uint256",
          "name": "long",
          "type": "uint256"
        },
        {
          "internalType": "bool",
          "name": "iscompling",
          "type": "bool"
        },
        {
          "internalType": "string",
          "name": "name",
          "type": "string"
        },
        {
          "internalType": "uint256",
          "name": "allowed_distance",
          "type": "uint256"
        }
      ],
      "stateMutability": "view",
      "type": "function",
      "constant": true
    },
    {
      "inputs": [
        {
          "internalType": "uint256",
          "name": "lat",
          "type": "uint256"
        },
        {
          "internalType": "uint256",
          "name": "long",
          "type": "uint256"
        },
        {
          "internalType": "string",
          "name": "name",
          "type": "string"
        },
        {
          "internalType": "address",
          "name": "employee_address",
          "type": "address"
        },
        {
          "internalType": "uint256",
          "name": "allowed_distance",
          "type": "uint256"
        }
      ],
      "name": "create_employee",
      "outputs": [],
      "stateMutability": "nonpayable",
      "type": "function"
    },
    {
      "inputs": [
        {
          "internalType": "uint256",
          "name": "x",
          "type": "uint256"
        }
      ],
      "name": "sqrt",
      "outputs": [
        {
          "internalType": "uint256",
          "name": "y",
          "type": "uint256"
        }
      ],
      "stateMutability": "pure",
      "type": "function",
      "constant": true
    },
    {
      "inputs": [
        {
          "internalType": "uint256",
          "name": "lat",
          "type": "uint256"
        },
        {
          "internalType": "uint256",
          "name": "long",
          "type": "uint256"
        },
        {
          "internalType": "uint256",
          "name": "lat2",
          "type": "uint256"
        },
        {
          "internalType": "uint256",
          "name": "long2",
          "type": "uint256"
        }
      ],
      "name": "distance_calculator",
      "outputs": [
        {
          "internalType": "uint256",
          "name": "",
          "type": "uint256"
        }
      ],
      "stateMutability": "pure",
      "type": "function",
      "constant": true
    },
    {
      "inputs": [
        {
          "internalType": "uint256",
          "name": "lat",
          "type": "uint256"
        },
        {
          "internalType": "uint256",
          "name": "long",
          "type": "uint256"
        }
      ],
      "name": "is_compling",
      "outputs": [],
      "stateMutability": "nonpayable",
      "type": "function"
    }
  ],
  "bytecode": "0x608060405234801561001057600080fd5b50611010806100206000396000f3fe608060405234801561001057600080fd5b50600436106100575760003560e01c80633c70ff831461005c578063677342ce1461009057806389acc0a4146100c057806396815739146100f0578063a15d812d1461010c575b600080fd5b61007660048036038101906100719190610648565b610128565b604051610087959493929190610739565b60405180910390f35b6100aa60048036038101906100a591906107bf565b6101f3565b6040516100b791906107ec565b60405180910390f35b6100da60048036038101906100d59190610807565b610250565b6040516100e791906107ec565b60405180910390f35b61010a6004803603810190610105919061086e565b6102a3565b005b610126600480360381019061012191906109e3565b610454565b005b60006020528060005260406000206000915090508060000154908060010154908060020160009054906101000a900460ff169080600301805461016a90610aa9565b80601f016020809104026020016040519081016040528092919081815260200182805461019690610aa9565b80156101e35780601f106101b8576101008083540402835291602001916101e3565b820191906000526020600020905b8154815290600101906020018083116101c657829003601f168201915b5050505050908060040154905085565b60008060026001846102059190610b09565b61020f9190610b6c565b90508291505b8181101561024a57809150600281828561022f9190610b6c565b6102399190610b09565b6102439190610b6c565b9050610215565b50919050565b600080610295600286856102649190610b9d565b61026e9190610d11565b6002888761027c9190610b9d565b6102869190610d11565b6102909190610b09565b6101f3565b905080915050949350505050565b600033905060008060008373ffffffffffffffffffffffffffffffffffffffff1673ffffffffffffffffffffffffffffffffffffffff16815260200190815260200160002060000154905060008060008473ffffffffffffffffffffffffffffffffffffffff1673ffffffffffffffffffffffffffffffffffffffff168152602001908152602001600020600101549050600061034286868585610250565b905060008060008673ffffffffffffffffffffffffffffffffffffffff1673ffffffffffffffffffffffffffffffffffffffff1681526020019081526020016000206004015490508082116103f05760016000808773ffffffffffffffffffffffffffffffffffffffff1673ffffffffffffffffffffffffffffffffffffffff16815260200190815260200160002060020160006101000a81548160ff02191690831515021790555061044b565b60008060008773ffffffffffffffffffffffffffffffffffffffff1673ffffffffffffffffffffffffffffffffffffffff16815260200190815260200160002060020160006101000a81548160ff0219169083151502179055505b50505050505050565b846000808473ffffffffffffffffffffffffffffffffffffffff1673ffffffffffffffffffffffffffffffffffffffff16815260200190815260200160002060000181905550836000808473ffffffffffffffffffffffffffffffffffffffff1673ffffffffffffffffffffffffffffffffffffffff1681526020019081526020016000206001018190555060008060008473ffffffffffffffffffffffffffffffffffffffff1673ffffffffffffffffffffffffffffffffffffffff16815260200190815260200160002060020160006101000a81548160ff021916908315150217905550826000808473ffffffffffffffffffffffffffffffffffffffff1673ffffffffffffffffffffffffffffffffffffffff16815260200190815260200160002060030190816105889190610f08565b50806000808473ffffffffffffffffffffffffffffffffffffffff1673ffffffffffffffffffffffffffffffffffffffff168152602001908152602001600020600401819055505050505050565b6000604051905090565b600080fd5b600080fd5b600073ffffffffffffffffffffffffffffffffffffffff82169050919050565b6000610615826105ea565b9050919050565b6106258161060a565b811461063057600080fd5b50565b6000813590506106428161061c565b92915050565b60006020828403121561065e5761065d6105e0565b5b600061066c84828501610633565b91505092915050565b6000819050919050565b61068881610675565b82525050565b60008115159050919050565b6106a38161068e565b82525050565b600081519050919050565b600082825260208201905092915050565b60005b838110156106e35780820151818401526020810190506106c8565b60008484015250505050565b6000601f19601f8301169050919050565b600061070b826106a9565b61071581856106b4565b93506107258185602086016106c5565b61072e816106ef565b840191505092915050565b600060a08201905061074e600083018861067f565b61075b602083018761067f565b610768604083018661069a565b818103606083015261077a8185610700565b9050610789608083018461067f565b9695505050505050565b61079c81610675565b81146107a757600080fd5b50565b6000813590506107b981610793565b92915050565b6000602082840312156107d5576107d46105e0565b5b60006107e3848285016107aa565b91505092915050565b6000602082019050610801600083018461067f565b92915050565b60008060008060808587031215610821576108206105e0565b5b600061082f878288016107aa565b9450506020610840878288016107aa565b9350506040610851878288016107aa565b9250506060610862878288016107aa565b91505092959194509250565b60008060408385031215610885576108846105e0565b5b6000610893858286016107aa565b92505060206108a4858286016107aa565b9150509250929050565b600080fd5b600080fd5b7f4e487b7100000000000000000000000000000000000000000000000000000000600052604160045260246000fd5b6108f0826106ef565b810181811067ffffffffffffffff8211171561090f5761090e6108b8565b5b80604052505050565b60006109226105d6565b905061092e82826108e7565b919050565b600067ffffffffffffffff82111561094e5761094d6108b8565b5b610957826106ef565b9050602081019050919050565b82818337600083830152505050565b600061098661098184610933565b610918565b9050828152602081018484840111156109a2576109a16108b3565b5b6109ad848285610964565b509392505050565b600082601f8301126109ca576109c96108ae565b5b81356109da848260208601610973565b91505092915050565b600080600080600060a086880312156109ff576109fe6105e0565b5b6000610a0d888289016107aa565b9550506020610a1e888289016107aa565b945050604086013567ffffffffffffffff811115610a3f57610a3e6105e5565b5b610a4b888289016109b5565b9350506060610a5c88828901610633565b9250506080610a6d888289016107aa565b9150509295509295909350565b7f4e487b7100000000000000000000000000000000000000000000000000000000600052602260045260246000fd5b60006002820490506001821680610ac157607f821691505b602082108103610ad457610ad3610a7a565b5b50919050565b7f4e487b7100000000000000000000000000000000000000000000000000000000600052601160045260246000fd5b6000610b1482610675565b9150610b1f83610675565b9250828201905080821115610b3757610b36610ada565b5b92915050565b7f4e487b7100000000000000000000000000000000000000000000000000000000600052601260045260246000fd5b6000610b7782610675565b9150610b8283610675565b925082610b9257610b91610b3d565b5b828204905092915050565b6000610ba882610675565b9150610bb383610675565b9250828203905081811115610bcb57610bca610ada565b5b92915050565b60008160011c9050919050565b6000808291508390505b6001851115610c2857808604811115610c0457610c03610ada565b5b6001851615610c135780820291505b8081029050610c2185610bd1565b9450610be8565b94509492505050565b600082610c415760019050610cfd565b81610c4f5760009050610cfd565b8160018114610c655760028114610c6f57610c9e565b6001915050610cfd565b60ff841115610c8157610c80610ada565b5b8360020a915084821115610c9857610c97610ada565b5b50610cfd565b5060208310610133831016604e8410600b8410161715610cd35782820a905083811115610cce57610ccd610ada565b5b610cfd565b610ce08484846001610bde565b92509050818404811115610cf757610cf6610ada565b5b81810290505b9392505050565b600060ff82169050919050565b6000610d1c82610675565b9150610d2783610d04565b9250610d547fffffffffffffffffffffffffffffffffffffffffffffffffffffffffffffffff8484610c31565b905092915050565b60008190508160005260206000209050919050565b60006020601f8301049050919050565b600082821b905092915050565b600060088302610dbe7fffffffffffffffffffffffffffffffffffffffffffffffffffffffffffffffff82610d81565b610dc88683610d81565b95508019841693508086168417925050509392505050565b6000819050919050565b6000610e05610e00610dfb84610675565b610de0565b610675565b9050919050565b6000819050919050565b610e1f83610dea565b610e33610e2b82610e0c565b848454610d8e565b825550505050565b600090565b610e48610e3b565b610e53818484610e16565b505050565b5b81811015610e7757610e6c600082610e40565b600181019050610e59565b5050565b601f821115610ebc57610e8d81610d5c565b610e9684610d71565b81016020851015610ea5578190505b610eb9610eb185610d71565b830182610e58565b50505b505050565b600082821c905092915050565b6000610edf60001984600802610ec1565b1980831691505092915050565b6000610ef88383610ece565b9150826002028217905092915050565b610f11826106a9565b67ffffffffffffffff811115610f2a57610f296108b8565b5b610f348254610aa9565b610f3f828285610e7b565b600060209050601f831160018114610f725760008415610f60578287015190505b610f6a8582610eec565b865550610fd2565b601f198416610f8086610d5c565b60005b82811015610fa857848901518255600182019150602085019450602081019050610f83565b86831015610fc55784890151610fc1601f891682610ece565b8355505b6001600288020188555050505b50505050505056fea2646970667358221220e9135524383d2823fe94caaecd9650b3926395f8656f44ab8c2498dc9432c9ae64736f6c63430008110033",
  "immutableReferences": {},
  "source": "//SPDX-License-Identifier: UNLICENSED\r\npragma solidity ^0.8.17;\r\n\r\ncontract paybylocation{\r\n    \r\n    struct employee_info{\r\n        uint256 lat;\r\n        uint256 long;\r\n        bool iscompling;\r\n        string name;\r\n        uint allowed_distance;\r\n        \r\n    }\r\n    mapping  (address => employee_info) public employee_store;\r\nfunction create_employee(uint256 lat, uint256 long, string memory name,address employee_address,uint allowed_distance) public{\r\n     employee_store[employee_address].lat = lat;\r\n     employee_store[employee_address].long = long;\r\n     employee_store[employee_address].iscompling = false;\r\n     employee_store[employee_address].name = name;\r\n     employee_store[employee_address].allowed_distance = allowed_distance;\r\n\r\n}\r\n\r\nfunction sqrt(uint x) public pure returns (uint y) {\r\n    uint z = (x + 1) / 2;\r\n    y = x;\r\n        while (z < y) {\r\n            y = z;\r\n            z = (x / z + z) / 2;\r\n        }\r\n        return y;\r\n    }\r\nfunction distance_calculator(uint256 lat, uint256 long,uint256 lat2, uint256 long2) public pure returns (uint256)\r\n    {\r\n    \r\n        uint256 distance = uint256(sqrt((lat2 - lat) ** 2 + (long2 - long) ** 2));\r\n        return uint256(distance);\r\n\r\n    }\r\nfunction is_compling(uint256 lat, uint256 long) public {\r\n    address employee_address = msg.sender;\r\n    uint256 lat2 = employee_store[employee_address].lat;\r\n    uint256 long2 = employee_store[employee_address].long;\r\n    uint256 distance = distance_calculator(lat,long,lat2,long2);\r\n    uint256 allowed_distance = employee_store[employee_address].allowed_distance;\r\n    if (distance <= allowed_distance){\r\n        employee_store[employee_address].iscompling = true;\r\n    }\r\n    else{\r\n        employee_store[employee_address].iscompling = false;\r\n    }\r\n\r\n}\r\n}\r\n",
  "sourcePath": "C:\\Users\\User\\Desktop\\Refund-by-Location-Smart-Contract\\refund_dapp\\contracts\\refundbylocation.sol",
  "compiler": {
    "name": "solc",
    "version": "0.8.17+commit.8df45f5f.Emscripten.clang"
  },
  "schemaVersion": "3.4.10",
  "updatedAt": "2022-10-29T12:34:53.327Z",
  "networkType": "ethereum",
  "devdoc": {
    "kind": "dev",
    "methods": {},
    "version": 1
  },
  "userdoc": {
    "kind": "user",
    "methods": {},
    "version": 1
  }
}