{
  "contractName": "paybylocation",
  "abi": [
    {
      "inputs": [
        {
          "internalType": "address",
          "name": "",
          "type": "address"
        }
      ],
      "name": "employee_store",
      "outputs": [
        {
          "internalType": "uint256",
          "name": "lat",
          "type": "uint256"
        },
        {
          "internalType": "uint256",
          "name": "long",
          "type": "uint256"
        },
        {
          "internalType": "bool",
          "name": "iscompling",
          "type": "bool"
        },
        {
          "internalType": "string",
          "name": "name",
          "type": "string"
        },
        {
          "internalType": "uint256",
          "name": "allowed_distance",
          "type": "uint256"
        },
        {
          "internalType": "uint256",
          "name": "timestamp",
          "type": "uint256"
        }
      ],
      "stateMutability": "view",
      "type": "function",
      "constant": true
    },
    {
      "inputs": [
        {
          "internalType": "uint256",
          "name": "lat",
          "type": "uint256"
        },
        {
          "internalType": "uint256",
          "name": "long",
          "type": "uint256"
        },
        {
          "internalType": "string",
          "name": "name",
          "type": "string"
        },
        {
          "internalType": "address",
          "name": "employee_address",
          "type": "address"
        },
        {
          "internalType": "uint256",
          "name": "allowed_distance",
          "type": "uint256"
        },
        {
          "internalType": "uint256",
          "name": "timestamp",
          "type": "uint256"
        }
      ],
      "name": "create_employee",
      "outputs": [],
      "stateMutability": "nonpayable",
      "type": "function"
    },
    {
      "inputs": [
        {
          "internalType": "uint256",
          "name": "x",
          "type": "uint256"
        }
      ],
      "name": "sqrt",
      "outputs": [
        {
          "internalType": "uint256",
          "name": "y",
          "type": "uint256"
        }
      ],
      "stateMutability": "pure",
      "type": "function",
      "constant": true
    },
    {
      "inputs": [
        {
          "internalType": "uint256",
          "name": "lat",
          "type": "uint256"
        },
        {
          "internalType": "uint256",
          "name": "long",
          "type": "uint256"
        },
        {
          "internalType": "uint256",
          "name": "lat2",
          "type": "uint256"
        },
        {
          "internalType": "uint256",
          "name": "long2",
          "type": "uint256"
        }
      ],
      "name": "distance_calculator",
      "outputs": [
        {
          "internalType": "uint256",
          "name": "",
          "type": "uint256"
        }
      ],
      "stateMutability": "pure",
      "type": "function",
      "constant": true
    },
    {
      "inputs": [
        {
          "internalType": "uint256",
          "name": "lat",
          "type": "uint256"
        },
        {
          "internalType": "uint256",
          "name": "long",
          "type": "uint256"
        },
        {
          "internalType": "uint256",
          "name": "emptime",
          "type": "uint256"
        }
      ],
      "name": "is_compling",
      "outputs": [],
      "stateMutability": "nonpayable",
      "type": "function"
    }
  ],
  "bytecode": "0x608060405234801561001057600080fd5b506110e7806100206000396000f3fe608060405234801561001057600080fd5b50600436106100575760003560e01c80632b46d9c81461005c5780633c70ff8314610078578063677342ce146100ad5780636f48b082146100dd57806389acc0a4146100f9575b600080fd5b610076600480360381019061007191906106c4565b610129565b005b610092600480360381019061008d9190610775565b610330565b6040516100a49695949392919061085c565b60405180910390f35b6100c760048036038101906100c291906108c4565b610401565b6040516100d491906108f1565b60405180910390f35b6100f760048036038101906100f29190610a41565b61045e565b005b610113600480360381019061010e9190610aea565b610627565b60405161012091906108f1565b60405180910390f35b600033905060008060008373ffffffffffffffffffffffffffffffffffffffff1673ffffffffffffffffffffffffffffffffffffffff16815260200190815260200160002060000154905060008060008473ffffffffffffffffffffffffffffffffffffffff1673ffffffffffffffffffffffffffffffffffffffff16815260200190815260200160002060010154905060006101c887878585610627565b905060008060008673ffffffffffffffffffffffffffffffffffffffff1673ffffffffffffffffffffffffffffffffffffffff16815260200190815260200160002060040154905060008060008773ffffffffffffffffffffffffffffffffffffffff1673ffffffffffffffffffffffffffffffffffffffff1681526020019081526020016000206005015490508183111580156102665750808711155b156102ca5760016000808873ffffffffffffffffffffffffffffffffffffffff1673ffffffffffffffffffffffffffffffffffffffff16815260200190815260200160002060020160006101000a81548160ff021916908315150217905550610325565b60008060008873ffffffffffffffffffffffffffffffffffffffff1673ffffffffffffffffffffffffffffffffffffffff16815260200190815260200160002060020160006101000a81548160ff0219169083151502179055505b505050505050505050565b60006020528060005260406000206000915090508060000154908060010154908060020160009054906101000a900460ff169080600301805461037290610b80565b80601f016020809104026020016040519081016040528092919081815260200182805461039e90610b80565b80156103eb5780601f106103c0576101008083540402835291602001916103eb565b820191906000526020600020905b8154815290600101906020018083116103ce57829003601f168201915b5050505050908060040154908060050154905086565b60008060026001846104139190610be0565b61041d9190610c43565b90508291505b8181101561045857809150600281828561043d9190610c43565b6104479190610be0565b6104519190610c43565b9050610423565b50919050565b856000808573ffffffffffffffffffffffffffffffffffffffff1673ffffffffffffffffffffffffffffffffffffffff16815260200190815260200160002060000181905550846000808573ffffffffffffffffffffffffffffffffffffffff1673ffffffffffffffffffffffffffffffffffffffff1681526020019081526020016000206001018190555060008060008573ffffffffffffffffffffffffffffffffffffffff1673ffffffffffffffffffffffffffffffffffffffff16815260200190815260200160002060020160006101000a81548160ff021916908315150217905550836000808573ffffffffffffffffffffffffffffffffffffffff1673ffffffffffffffffffffffffffffffffffffffff16815260200190815260200160002060030190816105929190610e20565b50816000808573ffffffffffffffffffffffffffffffffffffffff1673ffffffffffffffffffffffffffffffffffffffff16815260200190815260200160002060040181905550806000808573ffffffffffffffffffffffffffffffffffffffff1673ffffffffffffffffffffffffffffffffffffffff16815260200190815260200160002060050181905550505050505050565b60008061066c6002868561063b9190610ef2565b6106459190611066565b600288876106539190610ef2565b61065d9190611066565b6106679190610be0565b610401565b905080915050949350505050565b6000604051905090565b600080fd5b600080fd5b6000819050919050565b6106a18161068e565b81146106ac57600080fd5b50565b6000813590506106be81610698565b92915050565b6000806000606084860312156106dd576106dc610684565b5b60006106eb868287016106af565b93505060206106fc868287016106af565b925050604061070d868287016106af565b9150509250925092565b600073ffffffffffffffffffffffffffffffffffffffff82169050919050565b600061074282610717565b9050919050565b61075281610737565b811461075d57600080fd5b50565b60008135905061076f81610749565b92915050565b60006020828403121561078b5761078a610684565b5b600061079984828501610760565b91505092915050565b6107ab8161068e565b82525050565b60008115159050919050565b6107c6816107b1565b82525050565b600081519050919050565b600082825260208201905092915050565b60005b838110156108065780820151818401526020810190506107eb565b60008484015250505050565b6000601f19601f8301169050919050565b600061082e826107cc565b61083881856107d7565b93506108488185602086016107e8565b61085181610812565b840191505092915050565b600060c08201905061087160008301896107a2565b61087e60208301886107a2565b61088b60408301876107bd565b818103606083015261089d8186610823565b90506108ac60808301856107a2565b6108b960a08301846107a2565b979650505050505050565b6000602082840312156108da576108d9610684565b5b60006108e8848285016106af565b91505092915050565b600060208201905061090660008301846107a2565b92915050565b600080fd5b600080fd5b7f4e487b7100000000000000000000000000000000000000000000000000000000600052604160045260246000fd5b61094e82610812565b810181811067ffffffffffffffff8211171561096d5761096c610916565b5b80604052505050565b600061098061067a565b905061098c8282610945565b919050565b600067ffffffffffffffff8211156109ac576109ab610916565b5b6109b582610812565b9050602081019050919050565b82818337600083830152505050565b60006109e46109df84610991565b610976565b905082815260208101848484011115610a00576109ff610911565b5b610a0b8482856109c2565b509392505050565b600082601f830112610a2857610a2761090c565b5b8135610a388482602086016109d1565b91505092915050565b60008060008060008060c08789031215610a5e57610a5d610684565b5b6000610a6c89828a016106af565b9650506020610a7d89828a016106af565b955050604087013567ffffffffffffffff811115610a9e57610a9d610689565b5b610aaa89828a01610a13565b9450506060610abb89828a01610760565b9350506080610acc89828a016106af565b92505060a0610add89828a016106af565b9150509295509295509295565b60008060008060808587031215610b0457610b03610684565b5b6000610b12878288016106af565b9450506020610b23878288016106af565b9350506040610b34878288016106af565b9250506060610b45878288016106af565b91505092959194509250565b7f4e487b7100000000000000000000000000000000000000000000000000000000600052602260045260246000fd5b60006002820490506001821680610b9857607f821691505b602082108103610bab57610baa610b51565b5b50919050565b7f4e487b7100000000000000000000000000000000000000000000000000000000600052601160045260246000fd5b6000610beb8261068e565b9150610bf68361068e565b9250828201905080821115610c0e57610c0d610bb1565b5b92915050565b7f4e487b7100000000000000000000000000000000000000000000000000000000600052601260045260246000fd5b6000610c4e8261068e565b9150610c598361068e565b925082610c6957610c68610c14565b5b828204905092915050565b60008190508160005260206000209050919050565b60006020601f8301049050919050565b600082821b905092915050565b600060088302610cd67fffffffffffffffffffffffffffffffffffffffffffffffffffffffffffffffff82610c99565b610ce08683610c99565b95508019841693508086168417925050509392505050565b6000819050919050565b6000610d1d610d18610d138461068e565b610cf8565b61068e565b9050919050565b6000819050919050565b610d3783610d02565b610d4b610d4382610d24565b848454610ca6565b825550505050565b600090565b610d60610d53565b610d6b818484610d2e565b505050565b5b81811015610d8f57610d84600082610d58565b600181019050610d71565b5050565b601f821115610dd457610da581610c74565b610dae84610c89565b81016020851015610dbd578190505b610dd1610dc985610c89565b830182610d70565b50505b505050565b600082821c905092915050565b6000610df760001984600802610dd9565b1980831691505092915050565b6000610e108383610de6565b9150826002028217905092915050565b610e29826107cc565b67ffffffffffffffff811115610e4257610e41610916565b5b610e4c8254610b80565b610e57828285610d93565b600060209050601f831160018114610e8a5760008415610e78578287015190505b610e828582610e04565b865550610eea565b601f198416610e9886610c74565b60005b82811015610ec057848901518255600182019150602085019450602081019050610e9b565b86831015610edd5784890151610ed9601f891682610de6565b8355505b6001600288020188555050505b505050505050565b6000610efd8261068e565b9150610f088361068e565b9250828203905081811115610f2057610f1f610bb1565b5b92915050565b60008160011c9050919050565b6000808291508390505b6001851115610f7d57808604811115610f5957610f58610bb1565b5b6001851615610f685780820291505b8081029050610f7685610f26565b9450610f3d565b94509492505050565b600082610f965760019050611052565b81610fa45760009050611052565b8160018114610fba5760028114610fc457610ff3565b6001915050611052565b60ff841115610fd657610fd5610bb1565b5b8360020a915084821115610fed57610fec610bb1565b5b50611052565b5060208310610133831016604e8410600b84101617156110285782820a90508381111561102357611022610bb1565b5b611052565b6110358484846001610f33565b9250905081840481111561104c5761104b610bb1565b5b81810290505b9392505050565b600060ff82169050919050565b60006110718261068e565b915061107c83611059565b92506110a97fffffffffffffffffffffffffffffffffffffffffffffffffffffffffffffffff8484610f86565b90509291505056fea26469706673582212209e5ff024b6e4c3a9c74bbcaf26ebf2921b279357542429c5332b11f9236a827e64736f6c63430008110033",
  "immutableReferences": {},
  "source": "//SPDX-License-Identifier: UNLICENSED\r\npragma solidity ^0.8.17;\r\n\r\ncontract paybylocation{\r\n    \r\n    struct employee_info{\r\n        uint256 lat;\r\n        uint256 long;\r\n        bool iscompling;\r\n        string name;\r\n        uint256 allowed_distance;\r\n        uint256 timestamp;\r\n        \r\n    }\r\n    mapping  (address => employee_info) public employee_store;\r\nfunction create_employee(uint256 lat, uint256 long, string memory name,address employee_address,uint allowed_distance,uint256 timestamp) public{\r\n     employee_store[employee_address].lat = lat;\r\n     employee_store[employee_address].long = long;\r\n     employee_store[employee_address].iscompling = false;\r\n     employee_store[employee_address].name = name;\r\n     employee_store[employee_address].allowed_distance = allowed_distance;\r\n     employee_store[employee_address].timestamp = timestamp;\r\n\r\n}\r\n\r\nfunction sqrt(uint x) public pure returns (uint y) {\r\n    uint z = (x + 1) / 2;\r\n    y = x;\r\n        while (z < y) {\r\n            y = z;\r\n            z = (x / z + z) / 2;\r\n        }\r\n        return y;\r\n    }\r\nfunction distance_calculator(uint256 lat, uint256 long,uint256 lat2, uint256 long2) public pure returns (uint256)\r\n    {\r\n    \r\n        uint256 distance = uint256(sqrt((lat2 - lat) ** 2 + (long2 - long) ** 2));\r\n        return uint256(distance);\r\n\r\n    }\r\nfunction is_compling(uint256 lat, uint256 long,uint256 emptime) public {\r\n    address employee_address = msg.sender;\r\n    uint256 lat2 = employee_store[employee_address].lat;\r\n    uint256 long2 = employee_store[employee_address].long;\r\n    uint256 distance = distance_calculator(lat,long,lat2,long2);\r\n    uint256 allowed_distance = employee_store[employee_address].allowed_distance;\r\n    uint256 timestamp = employee_store[employee_address].timestamp;\r\n    if (distance <= allowed_distance && emptime<= timestamp){\r\n        employee_store[employee_address].iscompling = true;\r\n    }\r\n    else{\r\n        employee_store[employee_address].iscompling = false;\r\n    }\r\n\r\n}\r\n}\r\n",
  "sourcePath": "C:\\Users\\User\\Desktop\\Refund-by-Location-Smart-Contract\\refund_dapp\\contracts\\refundbylocation.sol",
  "compiler": {
    "name": "solc",
    "version": "0.8.17+commit.8df45f5f.Emscripten.clang"
  },
  "schemaVersion": "3.4.10",
  "updatedAt": "2022-10-29T21:51:38.025Z",
  "networkType": "ethereum",
  "devdoc": {
    "kind": "dev",
    "methods": {},
    "version": 1
  },
  "userdoc": {
    "kind": "user",
    "methods": {},
    "version": 1
  }
}